{
  "transactions": [
    {
      "hash": "0x73cbbe137f349df0cd1da16df508ab77f06a3badcd1e7f6b63d2c5d9c4b95e5f",
      "transactionType": "CALL",
      "contractName": null,
      "contractAddress": "0x054119c36e6c66029c3fbf3ce4979e54e3137b88",
      "function": "revealSpec(bytes32,bytes32,uint256)",
      "arguments": [
        "0x38adebc0138be595f3525bbddbd066136e85da0809d2140591269be07b789ea4",
        "0x018d49902c41b1bd2033ba7b25cfbf551ea8e6c57e0f89c2c1763c41e5698f5e",
        "12345"
      ],
      "transaction": {
        "from": "0x89839ef5911343a6134c28b96342f7fb3ae5d483",
        "to": "0x054119c36e6c66029c3fbf3ce4979e54e3137b88",
        "gas": "0x94fd0",
        "value": "0x2386f26fc10000",
        "input": "0x0ae1ceb738adebc0138be595f3525bbddbd066136e85da0809d2140591269be07b789ea4018d49902c41b1bd2033ba7b25cfbf551ea8e6c57e0f89c2c1763c41e5698f5e0000000000000000000000000000000000000000000000000000000000003039",
        "nonce": "0x9",
        "chainId": "0xaa36a7"
      },
      "additionalContracts": [],
      "isFixedGasLimit": false
    }
  ],
  "receipts": [
    {
      "status": "0x1",
      "cumulativeGasUsed": "0xb3adfe",
      "logs": [
        {
          "address": "0x054119c36e6c66029c3fbf3ce4979e54e3137b88",
          "topics": [
            "0x350f2b23e21486cb549fa2feabed0b9da50fca551b7a1f0450664b23027a86ae",
            "0x00000000000000000000000089839ef5911343a6134c28b96342f7fb3ae5d483",
            "0xdabc6e3c20fc7841a6de4687db8426b9291a4b753124ca55e5810979dfc7e804",
            "0x018d49902c41b1bd2033ba7b25cfbf551ea8e6c57e0f89c2c1763c41e5698f5e"
          ],
          "data": "0x38adebc0138be595f3525bbddbd066136e85da0809d2140591269be07b789ea4000000000000000000000000054119c36e6c66029c3fbf3ce4979e54e3137b880000000000000000000000000000000000000000000000000000000000aa36a7",
          "blockHash": "0x4d2c62aa96e7771d54dce06a25ccd4009edfde021159c7cb5d3da878d33f211d",
          "blockNumber": "0x8a14b7",
          "blockTimestamp": "0x68aa30e0",
          "transactionHash": "0x73cbbe137f349df0cd1da16df508ab77f06a3badcd1e7f6b63d2c5d9c4b95e5f",
          "transactionIndex": "0x70",
          "logIndex": "0xb9",
          "removed": false
        },
        {
          "address": "0x054119c36e6c66029c3fbf3ce4979e54e3137b88",
          "topics": [
            "0x0cbfe6d03015ec8f43091d1b1824d2078fae4dea4e22e5a641ead6cb4ad66c45",
            "0x00000000000000000000000089839ef5911343a6134c28b96342f7fb3ae5d483",
            "0xdabc6e3c20fc7841a6de4687db8426b9291a4b753124ca55e5810979dfc7e804",
            "0x018d49902c41b1bd2033ba7b25cfbf551ea8e6c57e0f89c2c1763c41e5698f5e"
          ],
          "data": "0x000000000000000000000000054119c36e6c66029c3fbf3ce4979e54e3137b880000000000000000000000000000000000000000000000000000000000aa36a70000000000000000000000000000000000000000000000000000000068aa30e00000000000000000000000000000000000000000000000000000000000000000",
          "blockHash": "0x4d2c62aa96e7771d54dce06a25ccd4009edfde021159c7cb5d3da878d33f211d",
          "blockNumber": "0x8a14b7",
          "blockTimestamp": "0x68aa30e0",
          "transactionHash": "0x73cbbe137f349df0cd1da16df508ab77f06a3badcd1e7f6b63d2c5d9c4b95e5f",
          "transactionIndex": "0x70",
          "logIndex": "0xba",
          "removed": false
        },
        {
          "address": "0x054119c36e6c66029c3fbf3ce4979e54e3137b88",
          "topics": [
            "0x860c68e210b8ac44030d3d51297bb4ae57a6b52ce92db55c2c5038b224f2a99c",
            "0x000000000000000000000000054119c36e6c66029c3fbf3ce4979e54e3137b88",
            "0xdabc6e3c20fc7841a6de4687db8426b9291a4b753124ca55e5810979dfc7e804",
            "0x00000000000000000000000089839ef5911343a6134c28b96342f7fb3ae5d483"
          ],
          "data": "0x0000000000000000000000000000000000000000000000000000000000aa36a7018d49902c41b1bd2033ba7b25cfbf551ea8e6c57e0f89c2c1763c41e5698f5e",
          "blockHash": "0x4d2c62aa96e7771d54dce06a25ccd4009edfde021159c7cb5d3da878d33f211d",
          "blockNumber": "0x8a14b7",
          "blockTimestamp": "0x68aa30e0",
          "transactionHash": "0x73cbbe137f349df0cd1da16df508ab77f06a3badcd1e7f6b63d2c5d9c4b95e5f",
          "transactionIndex": "0x70",
          "logIndex": "0xbb",
          "removed": false
        },
        {
          "address": "0xaf33dcb6e8c5c4d9ddf579f53031b514d19449ca",
          "topics": [
            "0xfe2dac156a3890636ce13f65f4fdf41dcaee11526e4a5374531572d92194796c",
            "0x7bf1d2d1442d56023f03f809914eb421521925af053e5cecedae72e9ea3c6454",
            "0x000000000000000000000000054119c36e6c66029c3fbf3ce4979e54e3137b88",
            "0x0c1650331a8c2c2e2db2e22980901923f05ae7591ca9870ee439742f1f1c315d"
          ],
          "data": "0x000000000000000000000000000000000000000000000000000000000000003100000000000000000000000000000000000000000000000000000000000000e000000000000000000000000005b942faecfb3924970e3a28e0f230910cedff45000000000000000000000000000000000000000000000000000000000002a300000000000000000000000000000000000000000000000000000000000000000000000000000000000000000000000000000000000000000000000000000000000000000000000000000000000000000000000000000000000000000068aa30e0000000000000000000000000000000000000000000000000000000000000007a307830313864343939303263343162316264323033336261376232356366626635353165613865366335376530663839633263313736336334316535363938663565e2909f307830353431313963333665366336363032396333666266336365343937396535346533313337623838e2909f3131313535313131000000000000",
          "blockHash": "0x4d2c62aa96e7771d54dce06a25ccd4009edfde021159c7cb5d3da878d33f211d",
          "blockNumber": "0x8a14b7",
          "blockTimestamp": "0x68aa30e0",
          "transactionHash": "0x73cbbe137f349df0cd1da16df508ab77f06a3badcd1e7f6b63d2c5d9c4b95e5f",
          "transactionIndex": "0x70",
          "logIndex": "0xbc",
          "removed": false
        },
        {
          "address": "0xaf33dcb6e8c5c4d9ddf579f53031b514d19449ca",
          "topics": [
            "0x54d68405b79f2aa4fd4e8db7b67844ad254cf8f208aac476c2894134a9deab66",
            "0x7bf1d2d1442d56023f03f809914eb421521925af053e5cecedae72e9ea3c6454",
            "0x000000000000000000000000054119c36e6c66029c3fbf3ce4979e54e3137b88"
          ],
          "data": "0x000000000000000000000000000000000000000000000000002386f26fc10000000000000000000000000000000000000000000000000000002386f26fc10000",
          "blockHash": "0x4d2c62aa96e7771d54dce06a25ccd4009edfde021159c7cb5d3da878d33f211d",
          "blockNumber": "0x8a14b7",
          "blockTimestamp": "0x68aa30e0",
          "transactionHash": "0x73cbbe137f349df0cd1da16df508ab77f06a3badcd1e7f6b63d2c5d9c4b95e5f",
          "transactionIndex": "0x70",
          "logIndex": "0xbd",
          "removed": false
        },
        {
          "address": "0xaf33dcb6e8c5c4d9ddf579f53031b514d19449ca",
          "topics": [
            "0x9641ca9d53af3bead658ffcc6c7d8c35e7dae9938367bd8eb45bee35d5c62504",
            "0x7bf1d2d1442d56023f03f809914eb421521925af053e5cecedae72e9ea3c6454"
          ],
          "data": "0x000000000000000000000000000000000000000000000000002386f26fc10000",
          "blockHash": "0x4d2c62aa96e7771d54dce06a25ccd4009edfde021159c7cb5d3da878d33f211d",
          "blockNumber": "0x8a14b7",
          "blockTimestamp": "0x68aa30e0",
          "transactionHash": "0x73cbbe137f349df0cd1da16df508ab77f06a3badcd1e7f6b63d2c5d9c4b95e5f",
          "transactionIndex": "0x70",
          "logIndex": "0xbe",
          "removed": false
        },
        {
          "address": "0x054119c36e6c66029c3fbf3ce4979e54e3137b88",
          "topics": [
            "0x1e93ff747c6d431ce627169ace0d7af61b428a3ca59c1b2947aa8f668484360d",
            "0x00000000000000000000000089839ef5911343a6134c28b96342f7fb3ae5d483",
            "0xdabc6e3c20fc7841a6de4687db8426b9291a4b753124ca55e5810979dfc7e804"
          ],
          "data": "0x7bf1d2d1442d56023f03f809914eb421521925af053e5cecedae72e9ea3c6454000000000000000000000000000000000000000000000000002386f26fc10000",
          "blockHash": "0x4d2c62aa96e7771d54dce06a25ccd4009edfde021159c7cb5d3da878d33f211d",
          "blockNumber": "0x8a14b7",
          "blockTimestamp": "0x68aa30e0",
          "transactionHash": "0x73cbbe137f349df0cd1da16df508ab77f06a3badcd1e7f6b63d2c5d9c4b95e5f",
          "transactionIndex": "0x70",
          "logIndex": "0xbf",
          "removed": false
        }
      ],
      "logsBloom": "0x00000200000040000000000020040000002000000000000000001040100000000000000000000000000000400000000000000200000000000000000000000002400000000000000100000000012008000000000000000000000200000000000000000000000000000000008000000a00000001000400400000000000000000000000000000000000000004000000020000000000002000100000000000004000000020800020800000000000000000000440002000000000000010000000002000000002000000000000000000002000000000000000000000000000000000002001000200000000000000008000002000000000000000000000000000000200",
      "type": "0x2",
      "transactionHash": "0x73cbbe137f349df0cd1da16df508ab77f06a3badcd1e7f6b63d2c5d9c4b95e5f",
      "transactionIndex": "0x70",
      "blockHash": "0x4d2c62aa96e7771d54dce06a25ccd4009edfde021159c7cb5d3da878d33f211d",
      "blockNumber": "0x8a14b7",
      "gasUsed": "0x6bdd7",
      "effectiveGasPrice": "0x10bf39b",
      "from": "0x89839ef5911343a6134c28b96342f7fb3ae5d483",
      "to": "0x054119c36e6c66029c3fbf3ce4979e54e3137b88",
      "contractAddress": null
    }
  ],
  "libraries": [],
  "pending": [],
  "returns": {},
  "timestamp": 1755984096,
  "chain": 11155111,
  "commit": "7e7365d"
}