{
  "transactions": [
    {
      "hash": "0x6a5e7927a76688df0b9e56974541503e0e5f260e6e2a1ff34bde9ef7ea3392ff",
      "transactionType": "CALL",
      "contractName": null,
      "contractAddress": "0x4dfea0c2b472a14cd052a8f9df9f19fa5cf03719",
      "function": "revealSpec(bytes32,bytes32,bytes32,uint256)",
      "arguments": [
        "0x9cfa86847d4d2929a9425a8fd969592c5e164e2fb52d87bab3a428e373d9cd79",
        "0x0196d7c56bbc18b22ea2ac4e65b968e39c918bfed9f7ac0c0fccabda8d0e2239",
        "0xb269bee2273ffe631057a429f0aed9a094c89c5038ed014aa8abee2bcd991f17",
        "12345"
      ],
      "transaction": {
        "from": "0x89839ef5911343a6134c28b96342f7fb3ae5d483",
        "to": "0x4dfea0c2b472a14cd052a8f9df9f19fa5cf03719",
        "gas": "0x95584",
        "value": "0x2386f26fc10000",
        "input": "0x996a0abd9cfa86847d4d2929a9425a8fd969592c5e164e2fb52d87bab3a428e373d9cd790196d7c56bbc18b22ea2ac4e65b968e39c918bfed9f7ac0c0fccabda8d0e2239b269bee2273ffe631057a429f0aed9a094c89c5038ed014aa8abee2bcd991f170000000000000000000000000000000000000000000000000000000000003039",
        "nonce": "0xe",
        "chainId": "0xaa36a7"
      },
      "additionalContracts": [],
      "isFixedGasLimit": false
    }
  ],
  "receipts": [
    {
      "status": "0x1",
      "cumulativeGasUsed": "0xd4a6a6",
      "logs": [
        {
          "address": "0x4dfea0c2b472a14cd052a8f9df9f19fa5cf03719",
          "topics": [
            "0x350f2b23e21486cb549fa2feabed0b9da50fca551b7a1f0450664b23027a86ae",
            "0x00000000000000000000000089839ef5911343a6134c28b96342f7fb3ae5d483",
            "0xc30c31258d9187225a14a8f30266a30b6da35fe9116b7fac28086475a7764f0f",
            "0x0196d7c56bbc18b22ea2ac4e65b968e39c918bfed9f7ac0c0fccabda8d0e2239"
          ],
          "data": "0x9cfa86847d4d2929a9425a8fd969592c5e164e2fb52d87bab3a428e373d9cd790000000000000000000000004dfea0c2b472a14cd052a8f9df9f19fa5cf037190000000000000000000000000000000000000000000000000000000000aa36a7",
          "blockHash": "0x5a8b481cffb02c5245e98a52175f359c12eb6baa7ae79300772118deca375ba3",
          "blockNumber": "0x8a2560",
          "blockTimestamp": "0x68ab049c",
          "transactionHash": "0x6a5e7927a76688df0b9e56974541503e0e5f260e6e2a1ff34bde9ef7ea3392ff",
          "transactionIndex": "0x79",
          "logIndex": "0xda",
          "removed": false
        },
        {
          "address": "0x4dfea0c2b472a14cd052a8f9df9f19fa5cf03719",
          "topics": [
            "0x0cbfe6d03015ec8f43091d1b1824d2078fae4dea4e22e5a641ead6cb4ad66c45",
            "0x00000000000000000000000089839ef5911343a6134c28b96342f7fb3ae5d483",
            "0xc30c31258d9187225a14a8f30266a30b6da35fe9116b7fac28086475a7764f0f",
            "0x0196d7c56bbc18b22ea2ac4e65b968e39c918bfed9f7ac0c0fccabda8d0e2239"
          ],
          "data": "0x0000000000000000000000004dfea0c2b472a14cd052a8f9df9f19fa5cf037190000000000000000000000000000000000000000000000000000000000aa36a70000000000000000000000000000000000000000000000000000000068ab049c0000000000000000000000000000000000000000000000000000000000000000",
          "blockHash": "0x5a8b481cffb02c5245e98a52175f359c12eb6baa7ae79300772118deca375ba3",
          "blockNumber": "0x8a2560",
          "blockTimestamp": "0x68ab049c",
          "transactionHash": "0x6a5e7927a76688df0b9e56974541503e0e5f260e6e2a1ff34bde9ef7ea3392ff",
          "transactionIndex": "0x79",
          "logIndex": "0xdb",
          "removed": false
        },
        {
          "address": "0x4dfea0c2b472a14cd052a8f9df9f19fa5cf03719",
          "topics": [
            "0x860c68e210b8ac44030d3d51297bb4ae57a6b52ce92db55c2c5038b224f2a99c",
            "0x0000000000000000000000004dfea0c2b472a14cd052a8f9df9f19fa5cf03719",
            "0xc30c31258d9187225a14a8f30266a30b6da35fe9116b7fac28086475a7764f0f",
            "0x00000000000000000000000089839ef5911343a6134c28b96342f7fb3ae5d483"
          ],
          "data": "0x0000000000000000000000000000000000000000000000000000000000aa36a70196d7c56bbc18b22ea2ac4e65b968e39c918bfed9f7ac0c0fccabda8d0e2239",
          "blockHash": "0x5a8b481cffb02c5245e98a52175f359c12eb6baa7ae79300772118deca375ba3",
          "blockNumber": "0x8a2560",
          "blockTimestamp": "0x68ab049c",
          "transactionHash": "0x6a5e7927a76688df0b9e56974541503e0e5f260e6e2a1ff34bde9ef7ea3392ff",
          "transactionIndex": "0x79",
          "logIndex": "0xdc",
          "removed": false
        },
        {
          "address": "0xaf33dcb6e8c5c4d9ddf579f53031b514d19449ca",
          "topics": [
            "0xfe2dac156a3890636ce13f65f4fdf41dcaee11526e4a5374531572d92194796c",
            "0x808f8dffc621e627c70432fcc14c74ff1042640ce51a7d2f4fa038dfe1027022",
            "0x0000000000000000000000004dfea0c2b472a14cd052a8f9df9f19fa5cf03719",
            "0xb7546be3f71715eef73e5ad52de39de9c914addac552f77929dbefee28953375"
          ],
          "data": "0x000000000000000000000000000000000000000000000000000000000000003200000000000000000000000000000000000000000000000000000000000000e000000000000000000000000005b942faecfb3924970e3a28e0f230910cedff45000000000000000000000000000000000000000000000000000000000002a300000000000000000000000000000000000000000000000000000000000000000000000000000000000000000000000000000000000000000000000000000000000000000000000000000000000000000000000000000000000000000068ab049c000000000000000000000000000000000000000000000000000000000000007a307830313936643763353662626331386232326561326163346536356239363865333963393138626665643966376163306330666363616264613864306532323339e2909f307834646665613063326234373261313463643035326138663964663966313966613563663033373139e2909f3131313535313131000000000000",
          "blockHash": "0x5a8b481cffb02c5245e98a52175f359c12eb6baa7ae79300772118deca375ba3",
          "blockNumber": "0x8a2560",
          "blockTimestamp": "0x68ab049c",
          "transactionHash": "0x6a5e7927a76688df0b9e56974541503e0e5f260e6e2a1ff34bde9ef7ea3392ff",
          "transactionIndex": "0x79",
          "logIndex": "0xdd",
          "removed": false
        },
        {
          "address": "0xaf33dcb6e8c5c4d9ddf579f53031b514d19449ca",
          "topics": [
            "0x54d68405b79f2aa4fd4e8db7b67844ad254cf8f208aac476c2894134a9deab66",
            "0x808f8dffc621e627c70432fcc14c74ff1042640ce51a7d2f4fa038dfe1027022",
            "0x0000000000000000000000004dfea0c2b472a14cd052a8f9df9f19fa5cf03719"
          ],
          "data": "0x000000000000000000000000000000000000000000000000002386f26fc10000000000000000000000000000000000000000000000000000002386f26fc10000",
          "blockHash": "0x5a8b481cffb02c5245e98a52175f359c12eb6baa7ae79300772118deca375ba3",
          "blockNumber": "0x8a2560",
          "blockTimestamp": "0x68ab049c",
          "transactionHash": "0x6a5e7927a76688df0b9e56974541503e0e5f260e6e2a1ff34bde9ef7ea3392ff",
          "transactionIndex": "0x79",
          "logIndex": "0xde",
          "removed": false
        },
        {
          "address": "0xaf33dcb6e8c5c4d9ddf579f53031b514d19449ca",
          "topics": [
            "0x9641ca9d53af3bead658ffcc6c7d8c35e7dae9938367bd8eb45bee35d5c62504",
            "0x808f8dffc621e627c70432fcc14c74ff1042640ce51a7d2f4fa038dfe1027022"
          ],
          "data": "0x000000000000000000000000000000000000000000000000002386f26fc10000",
          "blockHash": "0x5a8b481cffb02c5245e98a52175f359c12eb6baa7ae79300772118deca375ba3",
          "blockNumber": "0x8a2560",
          "blockTimestamp": "0x68ab049c",
          "transactionHash": "0x6a5e7927a76688df0b9e56974541503e0e5f260e6e2a1ff34bde9ef7ea3392ff",
          "transactionIndex": "0x79",
          "logIndex": "0xdf",
          "removed": false
        },
        {
          "address": "0x4dfea0c2b472a14cd052a8f9df9f19fa5cf03719",
          "topics": [
            "0x1e93ff747c6d431ce627169ace0d7af61b428a3ca59c1b2947aa8f668484360d",
            "0x00000000000000000000000089839ef5911343a6134c28b96342f7fb3ae5d483",
            "0xc30c31258d9187225a14a8f30266a30b6da35fe9116b7fac28086475a7764f0f"
          ],
          "data": "0x808f8dffc621e627c70432fcc14c74ff1042640ce51a7d2f4fa038dfe1027022000000000000000000000000000000000000000000000000002386f26fc10000",
          "blockHash": "0x5a8b481cffb02c5245e98a52175f359c12eb6baa7ae79300772118deca375ba3",
          "blockNumber": "0x8a2560",
          "blockTimestamp": "0x68ab049c",
          "transactionHash": "0x6a5e7927a76688df0b9e56974541503e0e5f260e6e2a1ff34bde9ef7ea3392ff",
          "transactionIndex": "0x79",
          "logIndex": "0xe0",
          "removed": false
        }
      ],
      "logsBloom": "0x00000000000000000000000020040020002000000000000000001040100100000008000000000000000000404000000000000200000000000000000000000002400000040000000100000000012000000000000000000008000200000000000200000000000000000000000000000a00000000000400008000000000000000000000000080000000000004000000000000000000002000000004000000004000000000800020000000000000000000000000000000000000000000000000002000000000000000000000004000000010000000000000000000000001000000082000004200000000000000000000002000000000000001008000000000000200",
      "type": "0x2",
      "transactionHash": "0x6a5e7927a76688df0b9e56974541503e0e5f260e6e2a1ff34bde9ef7ea3392ff",
      "transactionIndex": "0x79",
      "blockHash": "0x5a8b481cffb02c5245e98a52175f359c12eb6baa7ae79300772118deca375ba3",
      "blockNumber": "0x8a2560",
      "gasUsed": "0x6c1f8",
      "effectiveGasPrice": "0x6cbe660",
      "from": "0x89839ef5911343a6134c28b96342f7fb3ae5d483",
      "to": "0x4dfea0c2b472a14cd052a8f9df9f19fa5cf03719",
      "contractAddress": null
    }
  ],
  "libraries": [],
  "pending": [],
  "returns": {},
  "timestamp": 1756038302,
  "chain": 11155111,
  "commit": "2af9b0c"
}