{
  "transactions": [
    {
      "hash": "0x77e3d79105f74d09d2ac0e802574da38e8a9e8e5e1c7f5f6eccda6e0fdeb722d",
      "transactionType": "CALL",
      "contractName": null,
      "contractAddress": "0x054119c36e6c66029c3fbf3ce4979e54e3137b88",
      "function": "commitSpec(bytes32,address,uint256)",
      "arguments": [
        "0xf039b182f55c70e757c1082d5d87e85ae391fe9cb668b2c6a83065ce397b0fc5",
        "0x054119c36e6c66029c3fBf3cE4979E54e3137b88",
        "11155111"
      ],
      "transaction": {
        "from": "0x89839ef5911343a6134c28b96342f7fb3ae5d483",
        "to": "0x054119c36e6c66029c3fbf3ce4979e54e3137b88",
        "gas": "0x2989e",
        "value": "0x0",
        "input": "0xee5a7f6ef039b182f55c70e757c1082d5d87e85ae391fe9cb668b2c6a83065ce397b0fc5000000000000000000000000054119c36e6c66029c3fbf3ce4979e54e3137b880000000000000000000000000000000000000000000000000000000000aa36a7",
        "nonce": "0x7",
        "chainId": "0xaa36a7"
      },
      "additionalContracts": [],
      "isFixedGasLimit": false
    }
  ],
  "receipts": [
    {
      "status": "0x1",
      "cumulativeGasUsed": "0x9fe3a4",
      "logs": [
        {
          "address": "0x054119c36e6c66029c3fbf3ce4979e54e3137b88",
          "topics": [
            "0x40d1feb1b68cf83f56c84a3c44dfaaa33efced9759b5b2de376ee58088e9d3db",
            "0x00000000000000000000000089839ef5911343a6134c28b96342f7fb3ae5d483",
            "0xd7e81e9739dc954747aec34018cdbd3a1859d500522fa426b6c5e3efc3916be9",
            "0x000000000000000000000000054119c36e6c66029c3fbf3ce4979e54e3137b88"
          ],
          "data": "0x0000000000000000000000000000000000000000000000000000000000aa36a700000000000000000000000000000000000000000000000000000000000000000000000000000000000000000000000000000000000000000000000068a9d1b8",
          "blockHash": "0x009979f6472a3ed94ea3bcd1010f7b13787da0726d1f2f420499ede75dd3781f",
          "blockNumber": "0x8a0c3e",
          "blockTimestamp": "0x68a9c3a8",
          "transactionHash": "0x77e3d79105f74d09d2ac0e802574da38e8a9e8e5e1c7f5f6eccda6e0fdeb722d",
          "transactionIndex": "0x5c",
          "logIndex": "0xaa",
          "removed": false
        }
      ],
      "logsBloom": "0x00000000000040000000000000000000000000000000000000000000100200000000000000000000000000000000000000000000000080000000000000000000400000000000000100000000000000000400000000000000000000000000000000000000000000000000000000000000000001000000000000000000000000000000000000000000000000000000020000000000000000000000000000000000000000000000800040000000000000000000000000000000000010000000000000000000000000000000000000002000000000000000000000000000000010000000000000002000000000000000000000000000000000000000000000000000",
      "type": "0x2",
      "transactionHash": "0x77e3d79105f74d09d2ac0e802574da38e8a9e8e5e1c7f5f6eccda6e0fdeb722d",
      "transactionIndex": "0x5c",
      "blockHash": "0x009979f6472a3ed94ea3bcd1010f7b13787da0726d1f2f420499ede75dd3781f",
      "blockNumber": "0x8a0c3e",
      "gasUsed": "0x1e12d",
      "effectiveGasPrice": "0x40996d",
      "from": "0x89839ef5911343a6134c28b96342f7fb3ae5d483",
      "to": "0x054119c36e6c66029c3fbf3ce4979e54e3137b88",
      "contractAddress": null
    }
  ],
  "libraries": [],
  "pending": [],
  "returns": {},
  "timestamp": 1755956136,
  "chain": 11155111,
  "commit": "7e7365d"
}