{
  "transactions": [
    {
      "hash": "0x9cb56a0ff45e10ca4ddac75a0268cef239ba4be16150a27e4ccf0ad750fb02f9",
      "transactionType": "CALL",
      "contractName": null,
      "contractAddress": "0x4dfea0c2b472a14cd052a8f9df9f19fa5cf03719",
      "function": "commitSpec(bytes32,address,uint256)",
      "arguments": [
        "0xdd6d2c4a2bf65a26c733fe088d2904446f71e6c8ee5043388fa98f833e422123",
        "0x4dFEA0C2B472a14cD052a8f9DF9f19fa5CF03719",
        "11155111"
      ],
      "transaction": {
        "from": "0x89839ef5911343a6134c28b96342f7fb3ae5d483",
        "to": "0x4dfea0c2b472a14cd052a8f9df9f19fa5cf03719",
        "gas": "0x2989e",
        "value": "0x0",
        "input": "0xee5a7f6edd6d2c4a2bf65a26c733fe088d2904446f71e6c8ee5043388fa98f833e4221230000000000000000000000004dfea0c2b472a14cd052a8f9df9f19fa5cf037190000000000000000000000000000000000000000000000000000000000aa36a7",
        "nonce": "0xc",
        "chainId": "0xaa36a7"
      },
      "additionalContracts": [],
      "isFixedGasLimit": false
    }
  ],
  "receipts": [
    {
      "status": "0x1",
      "cumulativeGasUsed": "0x38e9edb",
      "logs": [
        {
          "address": "0x4dfea0c2b472a14cd052a8f9df9f19fa5cf03719",
          "topics": [
            "0x40d1feb1b68cf83f56c84a3c44dfaaa33efced9759b5b2de376ee58088e9d3db",
            "0x00000000000000000000000089839ef5911343a6134c28b96342f7fb3ae5d483",
            "0x9cfa86847d4d2929a9425a8fd969592c5e164e2fb52d87bab3a428e373d9cd79",
            "0x0000000000000000000000004dfea0c2b472a14cd052a8f9df9f19fa5cf03719"
          ],
          "data": "0x0000000000000000000000000000000000000000000000000000000000aa36a700000000000000000000000000000000000000000000000000000000000000000000000000000000000000000000000000000000000000000000000068ab0fac",
          "blockHash": "0xad0cf1c3314848e517ec322002ac552f217a2307309ac33b8613271c4f6c13c5",
          "blockNumber": "0x8a2521",
          "blockTimestamp": "0x68ab019c",
          "transactionHash": "0x9cb56a0ff45e10ca4ddac75a0268cef239ba4be16150a27e4ccf0ad750fb02f9",
          "transactionIndex": "0x5d4",
          "logIndex": "0xf9",
          "removed": false
        }
      ],
      "logsBloom": "0x00000000000000000000000000020000000000000000000000000000100300000000000000000000000000000000000000000000000000000000000000000000400000000000000100000000000000000400000000000000000000000000000000000000000000000000000000000000000000000800000000000000000000000000000000000000000000000000000000000000000000000004000000000000000000000000000000000000000000000000000000000000000000000000000000000000000000000000000000000010000000000000000000000000000010000000004000000002000000000000000000000000000001008000000000000000",
      "type": "0x2",
      "transactionHash": "0x9cb56a0ff45e10ca4ddac75a0268cef239ba4be16150a27e4ccf0ad750fb02f9",
      "transactionIndex": "0x5d4",
      "blockHash": "0xad0cf1c3314848e517ec322002ac552f217a2307309ac33b8613271c4f6c13c5",
      "blockNumber": "0x8a2521",
      "gasUsed": "0x1e12d",
      "effectiveGasPrice": "0x9ef28cf",
      "from": "0x89839ef5911343a6134c28b96342f7fb3ae5d483",
      "to": "0x4dfea0c2b472a14cd052a8f9df9f19fa5cf03719",
      "contractAddress": null
    }
  ],
  "libraries": [],
  "pending": [],
  "returns": {},
  "timestamp": 1756037534,
  "chain": 11155111,
  "commit": "2af9b0c"
}