{
  "transactions": [
    {
      "hash": "0x5aa663925daf4723aee8b633b48749336a6341f669702d27ad5beb7c1be4c1cf",
      "transactionType": "CALL",
      "contractName": null,
      "contractAddress": "0x054119c36e6c66029c3fbf3ce4979e54e3137b88",
      "function": "commitSpec(bytes32,address,uint256)",
      "arguments": [
        "0xf039b182f55c70e757c1082d5d87e85ae391fe9cb668b2c6a83065ce397b0fc5",
        "0x054119c36e6c66029c3fBf3cE4979E54e3137b88",
        "11155111"
      ],
      "transaction": {
        "from": "0x89839ef5911343a6134c28b96342f7fb3ae5d483",
        "to": "0x054119c36e6c66029c3fbf3ce4979e54e3137b88",
        "gas": "0x2989e",
        "value": "0x0",
        "input": "0xee5a7f6ef039b182f55c70e757c1082d5d87e85ae391fe9cb668b2c6a83065ce397b0fc5000000000000000000000000054119c36e6c66029c3fbf3ce4979e54e3137b880000000000000000000000000000000000000000000000000000000000aa36a7",
        "nonce": "0x5",
        "chainId": "0xaa36a7"
      },
      "additionalContracts": [],
      "isFixedGasLimit": false
    }
  ],
  "receipts": [
    {
      "status": "0x1",
      "cumulativeGasUsed": "0x114fda3",
      "logs": [
        {
          "address": "0x054119c36e6c66029c3fbf3ce4979e54e3137b88",
          "topics": [
            "0x40d1feb1b68cf83f56c84a3c44dfaaa33efced9759b5b2de376ee58088e9d3db",
            "0x00000000000000000000000089839ef5911343a6134c28b96342f7fb3ae5d483",
            "0x39510755aef346521e03de54d5ddaecf986b45002ea626798dad2322e501ed27",
            "0x000000000000000000000000054119c36e6c66029c3fbf3ce4979e54e3137b88"
          ],
          "data": "0x0000000000000000000000000000000000000000000000000000000000aa36a700000000000000000000000000000000000000000000000000000000000000000000000000000000000000000000000000000000000000000000000068a9c954",
          "blockHash": "0x02bb9098dcb9dacaf746c9627e3a63ac292061061c4032c2e480e0f4768e5b6a",
          "blockNumber": "0x8a0b8f",
          "blockTimestamp": "0x68a9bb44",
          "transactionHash": "0x5aa663925daf4723aee8b633b48749336a6341f669702d27ad5beb7c1be4c1cf",
          "transactionIndex": "0x75",
          "logIndex": "0x107",
          "removed": false
        }
      ],
      "logsBloom": "0x00000000000040000000002000000000000000000000000000000000100200000000000000000000000000000000000000000000000000000000000000000000400000000000000100000000000000000400000000000000000000000000000000000000000000000000000000000000000001000000000000000000000000000040000000000000000000000000020000000000000000000000000000000000000000000000800000000000000000000000000000000000000010000000000000000000000000000000000000002000000000000000000000000000000010000000000000000000000000000002000000000000000000000000000000000000",
      "type": "0x2",
      "transactionHash": "0x5aa663925daf4723aee8b633b48749336a6341f669702d27ad5beb7c1be4c1cf",
      "transactionIndex": "0x75",
      "blockHash": "0x02bb9098dcb9dacaf746c9627e3a63ac292061061c4032c2e480e0f4768e5b6a",
      "blockNumber": "0x8a0b8f",
      "gasUsed": "0x1e12d",
      "effectiveGasPrice": "0x36ccb9",
      "from": "0x89839ef5911343a6134c28b96342f7fb3ae5d483",
      "to": "0x054119c36e6c66029c3fbf3ce4979e54e3137b88",
      "contractAddress": null
    }
  ],
  "libraries": [],
  "pending": [],
  "returns": {},
  "timestamp": 1755953990,
  "chain": 11155111,
  "commit": "7e47cc2"
}