{
  "transactions": [
    {
      "hash": "0xcdfa30e608ffe04125aa8a3a21874e5d2961028d8db9dd01ac8b51ca87f11b9e",
      "transactionType": "CALL",
      "contractName": null,
      "contractAddress": "0x054119c36e6c66029c3fbf3ce4979e54e3137b88",
      "function": "commitSpec(bytes32,address,uint256)",
      "arguments": [
        "0xf039b182f55c70e757c1082d5d87e85ae391fe9cb668b2c6a83065ce397b0fc5",
        "0x054119c36e6c66029c3fBf3cE4979E54e3137b88",
        "11155111"
      ],
      "transaction": {
        "from": "0x89839ef5911343a6134c28b96342f7fb3ae5d483",
        "to": "0x054119c36e6c66029c3fbf3ce4979e54e3137b88",
        "gas": "0x2989e",
        "value": "0x0",
        "input": "0xee5a7f6ef039b182f55c70e757c1082d5d87e85ae391fe9cb668b2c6a83065ce397b0fc5000000000000000000000000054119c36e6c66029c3fbf3ce4979e54e3137b880000000000000000000000000000000000000000000000000000000000aa36a7",
        "nonce": "0x8",
        "chainId": "0xaa36a7"
      },
      "additionalContracts": [],
      "isFixedGasLimit": false
    }
  ],
  "receipts": [
    {
      "status": "0x1",
      "cumulativeGasUsed": "0xe709ae",
      "logs": [
        {
          "address": "0x054119c36e6c66029c3fbf3ce4979e54e3137b88",
          "topics": [
            "0x40d1feb1b68cf83f56c84a3c44dfaaa33efced9759b5b2de376ee58088e9d3db",
            "0x00000000000000000000000089839ef5911343a6134c28b96342f7fb3ae5d483",
            "0x38adebc0138be595f3525bbddbd066136e85da0809d2140591269be07b789ea4",
            "0x000000000000000000000000054119c36e6c66029c3fbf3ce4979e54e3137b88"
          ],
          "data": "0x0000000000000000000000000000000000000000000000000000000000aa36a700000000000000000000000000000000000000000000000000000000000000000000000000000000000000000000000000000000000000000000000068aa3e18",
          "blockHash": "0xa06e95c5491b8147773ef783f9c08ad3de4ddda7397ecaff7354305352a70797",
          "blockNumber": "0x8a14a9",
          "blockTimestamp": "0x68aa3008",
          "transactionHash": "0xcdfa30e608ffe04125aa8a3a21874e5d2961028d8db9dd01ac8b51ca87f11b9e",
          "transactionIndex": "0xc5",
          "logIndex": "0x12b",
          "removed": false
        }
      ],
      "logsBloom": "0x00000000000040000000000000000000000000000000000000000000100200000000000000000000000000000000000000000000000000000000000000000000400000000000000100000000000000000400000000000000000000000000000000000000000000000000000000000000000001000000000000000000000000000000000000000000000004000000020000000001000000000000000000000000000000000000800000000000000000000000000000000000000010000000000000000000000000000000000000002000000000000000000000000000000010000000000000000000000000000000000000000000000000000000040000000000",
      "type": "0x2",
      "transactionHash": "0xcdfa30e608ffe04125aa8a3a21874e5d2961028d8db9dd01ac8b51ca87f11b9e",
      "transactionIndex": "0xc5",
      "blockHash": "0xa06e95c5491b8147773ef783f9c08ad3de4ddda7397ecaff7354305352a70797",
      "blockNumber": "0x8a14a9",
      "gasUsed": "0x1e12d",
      "effectiveGasPrice": "0x10cf023",
      "from": "0x89839ef5911343a6134c28b96342f7fb3ae5d483",
      "to": "0x054119c36e6c66029c3fbf3ce4979e54e3137b88",
      "contractAddress": null
    }
  ],
  "libraries": [],
  "pending": [],
  "returns": {},
  "timestamp": 1755983881,
  "chain": 11155111,
  "commit": "7e7365d"
}