{
  "transactions": [
    {
      "hash": "0x54b3f5c18195cd7f04bcaf1805ec0e388aab784db61cefb512e09556b776717b",
      "transactionType": "CALL",
      "contractName": null,
      "contractAddress": "0x054119c36e6c66029c3fbf3ce4979e54e3137b88",
      "function": "commitSpec(bytes32,address,uint256)",
      "arguments": [
        "0xf039b182f55c70e757c1082d5d87e85ae391fe9cb668b2c6a83065ce397b0fc5",
        "0x054119c36e6c66029c3fBf3cE4979E54e3137b88",
        "11155111"
      ],
      "transaction": {
        "from": "0x89839ef5911343a6134c28b96342f7fb3ae5d483",
        "to": "0x054119c36e6c66029c3fbf3ce4979e54e3137b88",
        "gas": "0x2989e",
        "value": "0x0",
        "input": "0xee5a7f6ef039b182f55c70e757c1082d5d87e85ae391fe9cb668b2c6a83065ce397b0fc5000000000000000000000000054119c36e6c66029c3fbf3ce4979e54e3137b880000000000000000000000000000000000000000000000000000000000aa36a7",
        "nonce": "0x6",
        "chainId": "0xaa36a7"
      },
      "additionalContracts": [],
      "isFixedGasLimit": false
    }
  ],
  "receipts": [
    {
      "status": "0x1",
      "cumulativeGasUsed": "0x7b34c3",
      "logs": [
        {
          "address": "0x054119c36e6c66029c3fbf3ce4979e54e3137b88",
          "topics": [
            "0x40d1feb1b68cf83f56c84a3c44dfaaa33efced9759b5b2de376ee58088e9d3db",
            "0x00000000000000000000000089839ef5911343a6134c28b96342f7fb3ae5d483",
            "0x5e24729a5de66500bf5657f70c0d299ded1702ac0a5f05e6e4287a043b3943a2",
            "0x000000000000000000000000054119c36e6c66029c3fbf3ce4979e54e3137b88"
          ],
          "data": "0x0000000000000000000000000000000000000000000000000000000000aa36a700000000000000000000000000000000000000000000000000000000000000000000000000000000000000000000000000000000000000000000000068a9cc00",
          "blockHash": "0x770a4e777fdcf2450275438cfff5fd5364971cb20693640c642e196cf50a8af0",
          "blockNumber": "0x8a0bc8",
          "blockTimestamp": "0x68a9bdf0",
          "transactionHash": "0x54b3f5c18195cd7f04bcaf1805ec0e388aab784db61cefb512e09556b776717b",
          "transactionIndex": "0x36",
          "logIndex": "0x99",
          "removed": false
        }
      ],
      "logsBloom": "0x00000000000040000000000000000000000000000000000000000000100200000000000000000000000000000000000000000000000000000020000000000000400000000000000100000000000000000400000000000000000000000000000000000000000800000000000000000000040001000000000000000000000000000000000000000000000000000000020000000000000000000000000000000000000000000000800000000000000000000000000000000000000010000000000000000000000000000000000000002000000000000000000000000000000010000000000000000000000000000000000000000000000000000000000000000000",
      "type": "0x2",
      "transactionHash": "0x54b3f5c18195cd7f04bcaf1805ec0e388aab784db61cefb512e09556b776717b",
      "transactionIndex": "0x36",
      "blockHash": "0x770a4e777fdcf2450275438cfff5fd5364971cb20693640c642e196cf50a8af0",
      "blockNumber": "0x8a0bc8",
      "gasUsed": "0x1e12d",
      "effectiveGasPrice": "0x47a6dc",
      "from": "0x89839ef5911343a6134c28b96342f7fb3ae5d483",
      "to": "0x054119c36e6c66029c3fbf3ce4979e54e3137b88",
      "contractAddress": null
    }
  ],
  "libraries": [],
  "pending": [],
  "returns": {},
  "timestamp": 1755954672,
  "chain": 11155111,
  "commit": "7e47cc2"
}